:100000000C9435010C9466010C9466010C94660105
:100010000C9466010C9466010C9466010C946601C4
:100020000C9466010C9466010C9466010C946601B4
:100030000C9466010C9466010C9466010C946601A4
:100040000C9466010C9466010C9466010C94660194
:100050000C9466010C9466010C9466010C94F703F1
:100060000C9466010C94C1030C9497030C946601E4
:100070000C9466010C9466010C9466010C94660164
:100080000C9466010C9466010C9466010C94660154
:100090000C9466010C9466010C9466010C94660144
:1000A0000C9466010C9466010C9466010C94660134
:1000B0000C9466010C9466010C9466010C94660124
:1000C0000C9466010C9466010C9466010C94660114
:1000D0000C9466010C9466010C9466010C94660104
:1000E0000C9466010C94E3020C94C8020C94A401D5
:1000F0000C94C0020C944B020C94CC020C94FE01A4
:100100000C94C6010C9495010C94F5020C94FB021E
:100110000C94D5020C94C4020C94B8010C942806DB
:100120000C94CF020C94F1020C94BA020C94680166
:100130000C94ED020C94D9020C94FA020C94DF0298
:100140000C94FF020C94E702000021002400270019
:100150002A002D00300033000101000004010701D6
:100160000A0100002200250028002B002E0031008B
:10017000340002010000050108010B01000020000D
:100180002300260029002C002F003200000100006F
:10019000030106010901050505050705080808080A
:1001A000020202020A0A080804040404010101010F
:1001B000010101010303030303030303040707070A
:1001C0000C0C0C0C0C0C0C0C0202020206060606AF
:1001D000060606060B0B0B0B0B0B0B0B010210207C
:1001E000200808102040102040800201020108046D
:1001F0000201010204081020408080402010080401
:100200000201800402018040201008040201080459
:10021000020101020408102040800102040810209D
:10022000408000000A0B02090C0D0E0807030401B0
:1002300000000000000000000000000000000000BE
:10024000000000000000000000000000000012118B
:10025000100000000000000000000000000000008E
:100260000000000000000000280611241FBECFEF90
:10027000D1E2DEBFCDBF00E00CBF12E0A0E0B2E0F3
:10028000EEEBFCE000E00BBF02C007900D92A23144
:10029000B107D9F722E0A2E1B2E001C01D92AD3C66
:1002A000B207E1F711E0C5E3D1E000E006C0219715
:1002B0000109802FFE010E945506C433D10780E05A
:1002C0000807A9F70E9441040C945D060C940000F5
:1002D000AF92BF92CF92DF92EF92FF920F931F9354
:1002E000CF93DF936C017B018B01040F151FEB0192
:1002F0005E01AE18BF08C017D10759F06991D60149
:10030000ED91FC910190F081E02DC6011995892BAA
:1003100079F7C501DF91CF911F910F91FF90EF9079
:10032000DF90CF90BF90AF900895FC01538D448D26
:10033000252F30E0842F90E0821B930B541710F090
:10034000CF96089501970895FC01918D828D98179D
:1003500061F0A28DAE0FBF2FB11D5D968C91928D75
:100360009F5F9F73928F90E008958FEF9FEF0895A6
:10037000FC01918D828D981731F0828DE80FF11D6F
:10038000858D90E008958FEF9FEF0895FC01918D8A
:10039000228D892F90E0805C9F4F821B91098F7383
:1003A000992708958BE192E00E94C60121E0892BF4
:1003B00009F420E0822F0895FC01A48DA80FB92F25
:1003C000B11DA35ABF4F2C91848D90E001968F737D
:1003D0009927848FA689B7892C93A089B1898C919C
:1003E000837080648C93938D848D981306C00288EB
:1003F000F389E02D80818F7D80830895EF92FF92B5
:100400000F931F93CF93DF93EC0181E0888F9B8D37
:100410008C8D98131AC0E889F989808185FF15C0F1
:100420009FB7F894EE89FF896083E889F989808114
:100430008370806480839FBF81E090E0DF91CF91E3
:100440001F910F91FF90EF900895F62E0B8D10E005
:100450000F5F1F4F0F731127E02E8C8D8E110CC074
:100460000FB607FCFACFE889F989808185FFF5CFBF
:10047000CE010E94DC01F1CFEB8DEC0FFD2FF11DC1
:10048000E35AFF4FF0829FB7F8940B8FEA89FB89FC
:1004900080818062CFCFCF93DF93EC01888D88235A
:1004A000B9F0AA89BB89E889F9898C9185FD03C0D7
:1004B000808186FD0DC00FB607FCF7CF8C9185FFBC
:1004C000F2CF808185FFEDCFCE010E94DC01E9CF24
:1004D000DF91CF91089580E090E0892B29F00E9470
:1004E000D20181110E94000080E090E0892B49F048
:1004F00080E090E0892B29F00E94000081110E9489
:10050000000080E090E0892B49F080E090E0892BAA
:1005100029F00E94000081110E94000080E090E01C
:10052000892B49F080E090E0892B29F00E9400009F
:1005300081110C94000008958150823108F05AC056
:10054000E82FF0E08827E855FD4F8F4F0C945506B3
:10055000C802CC02BA02C002C402FA02CF02D5021B
:10056000D902DF02E302E702ED02F102FA02F5022C
:10057000FB02FF02809180008F77809380000895B6
:10058000809180008F7DF9CF80918000877FF5CFAB
:1005900084B58F7784BD089584B58F7DFBCF80911E
:1005A000B0008F778093B00008958091B0008F7D68
:1005B000F9CF809190008F7780939000089580917B
:1005C00090008F7DF9CF80919000877FF5CF80914B
:1005D000A0008F778093A00008958091A0008F7D68
:1005E000F9CF8091A000877FF5CF809120018F7790
:1005F000809320010895809120018F7DF9CF809113
:100600002001877FF5CFCF93DF93282F30E0F901CA
:10061000EE5DFD4F8491F901E452FE4FD491F90152
:10062000EA56FE4FC491CC23A1F081110E949C0296
:10063000EC2FF0E0EE0FFF1FE458FE4FA591B491B0
:10064000EC91ED2381E090E009F480E0DF91CF911F
:10065000089580E090E0FACF1F93CF93DF93282F87
:1006600030E0F901EE5DFD4F8491F901E452FE4F57
:10067000D491F901EA56FE4FC491CC23A9F0162F6C
:1006800081110E949C02EC2FF0E0EE0FFF1FEE594B
:10069000FE4FA591B4918FB7F894EC91111108C059
:1006A000D095DE23DC938FBFDF91CF911F9108950A
:1006B000DE2BF8CFCF93DF9390E0FC01E452FE4FA6
:1006C00024918A569E4FFC0184918823D1F090E0BA
:1006D000880F991FFC01E85BFE4FA591B491FC01C6
:1006E000EE59FE4FC591D49161110EC09FB7F89499
:1006F0008C91E22FE0958E238C932881E223E8836E
:100700009FBFDF91CF9108958FB7F894EC91E22BC2
:10071000EC938FBFF6CF2FB7F894609117027091CA
:1007200018028091190290911A022FBF08951F920A
:100730000F920FB60F9211240BB60F922F933F9387
:100740004F935F936F937F938F939F93AF93BF93D9
:10075000EF93FF938BE192E00E94DC01FF91EF9118
:10076000BF91AF919F918F917F916F915F914F91C9
:100770003F912F910F900BBE0F900FBE0F901F90C7
:1007800018951F920F920FB60F9211240BB60F926D
:100790002F938F939F93EF93FF93E0912B02F09110
:1007A0002C028081E0913102F091320282FD1DC065
:1007B0009081809134028F5F8F7320913502821770
:1007C00041F0E0913402F0E0E55EFD4F958F8093BB
:1007D0003402FF91EF919F918F912F910F900BBE5B
:1007E0000F900FBE0F901F9018958081F2CF1F922F
:1007F0000F920FB60F9211242F933F938F939F93D5
:10080000AF93BF938091170290911802A0911902A3
:10081000B0911A023091160223E0230F2D3758F5BC
:100820000196A11DB11D209316028093170290938B
:100830001802A0931902B0931A02809112029091AB
:100840001302A0911402B09115020196A11DB11DD1
:100850008093120290931302A0931402B093150296
:10086000BF91AF919F918F913F912F910F900FBEAC
:100870000F901F90189526E8230F0296A11DB11D19
:10088000D2CF789484B5826084BD84B5816084BD04
:1008900085B5826085BD85B5816085BD80916E001E
:1008A000816080936E00109281008091810082604F
:1008B000809381008091810081608093810080918C
:1008C00080008160809380008091B100846080937B
:1008D000B1008091B00081608093B0008091910060
:1008E000826080939100809191008160809391005B
:1008F000809190008160809390008091A10082603F
:100900008093A1008091A10081608093A1008091DB
:10091000A00081608093A00080912101826080937B
:10092000210180912101816080932101809120012A
:1009300081608093200180917A00846080937A00A6
:1009400080917A00826080937A0080917A00816041
:1009500080937A0080917A00806880937A00109268
:10096000C10060E089E00E945A0360E08AE00E94D2
:100970005A0360E08BE00E945A0360E08CE00E9422
:100980005A0360E08DE00E945A03E0912B02F0913F
:100990002C0282E08083E0912702F09128021082ED
:1009A000E0912902F0912A028FEC808310923302A9
:1009B000E0912F02F091300286E08083E0912D02D9
:1009C000F0912E02808180618083E0912D02F09170
:1009D0002E02808188608083E0912D02F0912E02AA
:1009E000808180688083E0912D02F0912E028081C9
:1009F0008F7D808361E080E00E945A0361E082E0A5
:100A00000E945A0361E083E00E945A0361E085E09E
:100A10000E945A0361E086E00E945A0361E084E08C
:100A20000E945A0389E00E940303019721F461E0C8
:100A300080E00E942C0389E00E9403035C018AE0AD
:100A40000E9403036C018BE00E9403037C018CE095
:100A50000E9403038C018DE00E940303EC01AA9421
:100A6000AB28A1F48091CC02811110C061E00E94FA
:100A70002C0381E08093CC020E948B036093C80218
:100A80007093C9028093CA029093CB028091CC02EA
:100A90008823C9F00E948B038090C8029090C902FD
:100AA000A090CA02B090CB02681979098A099B0903
:100AB000683873418105910530F060E080E00E9464
:100AC0002C031092CC02CA94CD2809F0A9C061E091
:100AD00086E00E942C030E948B038090C4029090B9
:100AE000C502A090C602B090C702681979098A09A8
:100AF0009B09603D77408105910570F061E086E0DB
:100B00000E942C030E948B036093C4027093C50261
:100B10008093C6029093C702EA94EF2809F085C03B
:100B200061E082E00E942C0361E083E00E942C03DC
:100B30000E948B03C090C002D090C102E090C2021C
:100B4000F090C3026C197D098E099F09603D7740C2
:100B50008105910590F061E082E00E942C0361E044
:100B600083E00E942C030E948B036093C002709369
:100B7000C1028093C2029093C3020130110509F0B3
:100B80005DC061E084E00E942C030E948B03009111
:100B9000BC021091BD022091BE023091BF02601BC9
:100BA000710B820B930B603D77408105910570F0CE
:100BB00061E084E00E942C030E948B036093BC02DE
:100BC0007093BD028093BE029093BF022197D9F526
:100BD00061E085E00E942C030E948B030091B80223
:100BE0001091B9022091BA023091BB02601B710BC7
:100BF000820B930B603D77408105910570F061E0B9
:100C000085E00E942C030E948B036093B8027093CE
:100C1000B9028093BA029093BB020E946B020BCF81
:100C200060E086E00E942C0377CF60E082E00E94C3
:100C30002C0360E083E00E942C039FCF60E084E0FF
:100C40000E942C03C3CF60E085E00E942C03E5CF17
:100C5000EBE1F2E01382128288EE93E0A0E0B0E0D4
:100C600084839583A683B78384E092E09183808315
:100C700085EC90E09587848784EC90E09787868761
:100C800080EC90E0918B808B81EC90E0938B828B59
:100C900082EC90E0958B848B86EC90E0978B868B32
:100CA000118E128E138E148E0895EE0FFF1F881F63
:0E0CB0008BBF0790F691E02D1994F894FFCFBA
:100CBE0000000000FE01680195014B02C601A4016F
:020CCE00B8016B
:00000001FF
